:020000040800F2
:10000000684F0020D5240008A50E0008A70E0008A0
:10001000A90E0008AB0E0008AD0E0008000000009D
:10002000000000000000000000000000AF0E00080B
:10003000B10E0008000000009FB400081D1E00085B
:10004000EF240008EF240008EF240008EF24000844
:10005000EF240008EF240008EF240008EF24000834
:10006000EF240008EF240008EF240008EF24000824
:10007000EF240008EF240008EF240008EF24000814
:10008000EF240008EF240008EF240008EF24000804
:10009000EF240008EF240008EF240008EF240008F4
:1000A000EF240008EF240008EF240008EF240008E4
:1000B000EF240008EF240008EF240008EF240008D4
:1000C000EF240008EF240008EF240008EF240008C4
:1000D000EF240008AD200008EF2400089322000858
:1000E000EF240008EF240008EF24000800F002F8D5
:1000F00000F0B0F80AA090E8000C82448344AAF112
:100100000107DA4501D100F0A5F8AFF2090EBAE80F
:100110000F0013F0010F18BFFB1A43F0010318473B
:100120000CCA00002CCA00000A444FF0000C10F862
:10013000013B13F0070408BF10F8014B1D1108BF65
:1001400010F8015B641E05D010F8016B641E01F805
:10015000016BF9D113F0080F1EBF10F8014BAD1C55
:100160000C1B09D16D1E58BF01F801CBFAD505E073
:1001700014F8016B01F8016B6D1EF9D59142D6D3CD
:10018000704700000023002400250026103A28BFF5
:1001900078C1FBD8520728BF30C148BF0B607047F9
:1001A0006E2909F02C85702909F0598666290BF013
:1001B000988665290BF0958667290BF09286612950
:1001C0000BF0918603681B0A28BF41F08001692962
:1001D00008F0E687642908F0E387752908F0E087CE
:1001E0006F2909F0E685782909F02586E92909F0C3
:1001F0001380E42909F01080F52909F00D80EF291A
:1002000009F0E385F82909F024860368DB0928BF93
:1002100041F08001632909F02E85732909F03385A7
:10022000E3290AF05F82F3290AF064820020704714
:100230001FB50AF08DFC0400002000210BF092F99C
:10024000401C6060002000210BF076F9E0601FBDCB
:1002500010B510BD0AF04EFC1146FFF7E9FF00F0A3
:100260007CFD0AF02BFD03B4FFF7F2FF03BC01F0A5
:1002700000FF000070472DE9F041FE4EFE4DFF4F9C
:100280000024305D78B1012807D0FDA008F03CFFC4
:10029000641C082CF5DBBDE8F08135F814103846F5
:1002A00002F051FAF4E735F81410384602F04DFA2E
:1002B000EEE738B500240121082002F056FD102099
:1002C0008DF8030003208DF8020047F2E030ADF80E
:1002D00000006946E94802F0CCF9EE49002004EB41
:1002E000840201EBC202641C1074642CF7DB38BD7D
:1002F0002DE9F041E84DE74E002404EB840006EBC5
:10030000C000017C012945D190F92010052947D270
:10031000DFE801F01930250E0300417CD0E90637F3
:1003200005EBC101D1E90021D21AB9412CDB31E042
:10033000417CD0E9063205EBC101D1E90071DB1B3C
:100340008A4121DB26E0417CD0E9063705EBC1017B
:10035000D1E900215A4079400A4315D01AE0417C86
:10036000D0E9063205EBC101D1E90071DB1B8A41FE
:100370000ADA0FE0417CD0E9063705EBC101D1E98B
:100380000021D21AB94105DB90F8221090F8210023
:10039000B84A1154641C322CAFDBBDE8F0416AE767
:1003A000BEA008F0B1FEF5E710B5A6B00446BFA1A7
:1003B000684609F02BFA2246C0A120A808F0B0FE3A
:1003C00020A9684609F065FABDA1684609F061FAFE
:1003D000B04804EB840100EBC1042146684609F0F3
:1003E00058FA207C012839D0B6A1684609F051FAA4
:1003F000627CB2A120A8143408F092FE20A96846BD
:1004000009F047FAD4E90123AFA120A808F088FE3B
:1004100020A9684609F03DFA94F90C20A7A120A86C
:1004200008F07EFE20A9684609F033FA627BA3A19A
:1004300020A808F075FE20A9684609F02AFA94F968
:100440000E209EA120A808F06BFE20A9684609F0A6
:1004500020FA684601F0C4F926B010BD9CA1C4E79B
:10046000A8B00DF198084FF4C8798B4F994D02F060
:100470002CF8884800231A4649462838CDF80080D1
:1004800006F034FB02F08CFF2978491C297002F039
:100490008BFF91A101A809F0B9F9002407EBC40072
:1004A00089A1D0E9002321A808F03AFE21A901A8DA
:1004B00009F0EFF9641C052CF0DB01A801F090F9BC
:1004C00002F003F888A101A809F0A0F98A4E0024DF
:1004D0007BA101A809F0DDF906EB041101A809F0E0
:1004E000D8F9641C082CF3DB01A801F079F901F0BC
:1004F000ECFF82A101A809F089F95E4E0024305D6D
:10050000012814D06FA101A809F0C3F9641C082CBC
:10051000F5DB01A801F064F901F0D7FF02F040FF1C
:100520002978491E11F0FF01297002D009E068A165
:10053000E9E77649098821B102F036FF04F02AFC88
:1005400095E702F031FF92E71CB501AE4FF47A77E0
:100550004FF4C8785F4D01F0B8FF4E4800231A46AB
:1005600039465038009606F0C1FA01AA00214046EB
:1005700007F0C6FF02F014FF2978491C297002F029
:1005800013FF002401F0A1FFE0B2FFF70DFF641C90
:10059000322CF7DB02F004FF2978491E11F0FF012D
:1005A000297007D15949098821B102F0FDFE04F0F4
:1005B000F1FBD0E702F0F8FECDE70EB52D4F454D2B
:1005C0007F1F354C3E1FDFF848A14FF000080DF1AA
:1005D00008094FF4FA7B01F078FF02F0E1FE297878
:1005E000491C297002F0E0FE2248401F01F09CFAED
:1005F000B878F97800EBC00202EB001001EB800044
:10060000C117C4E900013878797800EBC00202EB29
:10061000001001EB8000C117C4E9020101F013FFD3
:10062000708064214843C117C4E9040101F033FB21
:1006300000225346C6E906010BF00AFA0BF0F0FB64
:10064000C4E906010B48093801F0A9FB3088642190
:100650004843C117C4E90801FFF74AFE02F0A0FEB3
:100660002978491E11F0FF01297059D127490988BD
:1006700050E0000009000020DABF0008000C014033
:100680006E6F2072656C6179206F70657261746540
:100690000D0A000008190020F80300206E6F206387
:1006A0006F6D706172650D0A00000000237472693D
:1006B000676765725F6461746123000020256400D0
:1006C000200000002030000020256C6C6400000039
:1006D00020310000900300202373656E736F725FFA
:1006E00064617461230000002372656C61795F6E40
:1006F000616D652300000000D82000202372656C26
:1007000061795F646174612300000000540300207C
:100710000000594021B102F047FE04F03BFB01E02C
:1007200002F042FE00215B4602220846CDE9008924
:1007300007F035FF4FE788B0FE4FDFF8FC83DFF8A6
:10074000FCB34FF0000A0DF11C0901F0BEFE02F0EF
:1007500027FE3978491C397002F026FE00F0C3FCF0
:1007600000221146104600F073FD012200211020E6
:1007700000F06EFD06220021202000F069FD0A2213
:100780000021302000F064FDEB4CEDA1241D02A8F7
:10079000E378A27808F0C4FC102302AA00215020BC
:1007A00000F03CFD00220221104600F051FD012224
:1007B0000221102000F04CFD07220221202000F031
:1007C00047FD0A220221302000F042FD63782278A2
:1007D000DBA102A808F0A4FC102302AA02215020E9
:1007E00000F01CFD02F0DCFD3978491E11F0FF011C
:1007F000397007D1BBF8001021B102F0D5FD04F02B
:10080000C9FA01E002F0D0FD0023CDE900A90222DF
:100810001946184607F0C3FE01F057FE02F0C0FD6E
:100820003978491C397002F0BFFD00F05CFC0021F2
:100830000422084600F00CFD05220021102000F0E3
:1008400007FD09220021202000F002FD0A220021DC
:10085000302000F0FDFCD8E906010022BA4B044626
:100860000D460BF0F5F80BF09BF881B26420B1FB5C
:10087000F0F200FB1216204629460BF091F882B2E6
:100880003346AFA102A808F04BFC02A808F0E2FF33
:1008900005284FF0100302AA4FF0000101D25020AA
:1008A00000E0412000F0BAFC1023A8A202210020A1
:1008B00000F0B4FC0C23A6A20321102000F0AEFC33
:1008C00008220221202000F0C3FC0A22022130204D
:1008D00000F0BEFC4446B8F800209EA102A808F033
:1008E0001FFC102302AA0221502000F097FC0222D4
:1008F0000421002000F0ACFC03220421102000F0B1
:10090000A7FC07220421202000F0A2FC0A220421D7
:10091000302000F09DFC62888FA102A808F000FC46
:10092000102302AA0421502000F078FC02F038FDC8
:100930003978491E11F0FF01397007D1BBF800105A
:1009400021B102F031FD04F025FA01E002F02CFDA6
:100950000023CDE900A902221946184607F01FFE20
:10096000F3E6C6B000F080FF734FDFF8F48109377B
:10097000704C00250DF1E00901F0A7FD01F001F830
:10098000401C3ED0012000F05DFB02F009FD217803
:10099000491C217002F008FD01F097FD98F8000055
:1009A000464600282CD06E4906A808F02FFF357067
:1009B000AFF2D02106A808F011FF064669A109F0A0
:1009C00003F8002823D069A1304608F0FDFF10B3DA
:1009D0006AA1304608F0F8FF002831D06CA13046FB
:1009E00008F0F2FF002834D06DA1304608F0ECFF8B
:1009F00000283BD06EA1304608F0E6FF00284AD020
:100A000084E0002000F01EFB00F02EFFBDE76BA08D
:100A100000F0E6FE7AE0AFF23431002008F0DEFEAE
:100A20006B4604AA66A108F0F9FC6748049900EB3C
:100A30000110694608F0EAFE60A000F0D1FE25E052
:100A40005EA000F0CDFE38AA0021604806F0AAF9A9
:100A50005CE0AFF27031002008F0C0FE6A465CA195
:100A600008F0DCFC0099012078540AE0AFF28C31E8
:100A7000002008F0B3FE6A4655A108F0CFFC0098AC
:100A80003D544EA000F0ACFEFFF7F5FB4F480021AF
:100A900038AA2830DAE7AFF2B431002008F09EFE21
:100AA0000DF1080C44AE43AB42AA3EA98CE84E00BF
:100AB00041AA40A9CDE9001239AB3DAA45A108F0F1
:100AC000ADFC3D98414E00EB8000503606EBC00077
:100AD00039A908F09BFE3D98409900EB800006EB99
:100AE000C00000F8101F41994170DDE93E12C0E9D5
:100AF00002124299017443994174449981742FA060
:100B000000F06EFE3D98C0B2FFF74EFC01F0DDFC38
:100B100002F046FC2178491E11F0FF01217067D1D7
:100B20000649098821B102F03FFC04F033F961E085
:100B30005EE000009003002000000020540300202D
:100B400025642E256400000000005940434F00003A
:100B50003200000025640000256425250000000007
:100B6000B0230020636F6E6E656374007365745FFD
:100B700072656C61795F6E616D6500006765745FB9
:100B8000747269676765725F646174610000000078
:100B90007365745F72656C61795F6F70656E00007C
:100BA0007365745F72656C61795F636C6F73650008
:100BB0007365745F74726967676572006F6B0000BC
:100BC0002575202573000000D8200020B8180020CB
:100BD00025750000257520257320256420257520A6
:100BE000256C6C6420256420257520256400000098
:100BF00002F0DAFB0023CDE900590122194618461C
:100C000007F0CDFCB8E62DE9F04F8BB002F0F3FA17
:100C100009A806F082F9012109AA084603F045FD5A
:100C200002F0BEFB794E3178491C317002F0BCFBFA
:100C300009AB012276A17A4805F087FE784809AB16
:100C4000012278A1283805F080FE00240327CDE991
:100C5000064709AD05944FF0040B1921754A089514
:100C6000CDF800B0CDE901214FF480702346AFF2FA
:100C70000D32CDE903046F486FA1C43806F0E3FBE1
:100C8000CDE9064705944FF0050A4FF00C096D4A6F
:100C90000895CDF800A0CDE901294FF08008002388
:100CA000AFF26D526748CDE9038467A1C43806F0FE
:100CB000CAFBCDE906470594664A0895CDF800B011
:100CC000CDE901290023AFF20D726248CDE903841A
:100CD00061A1C43806F0B7FBCDE906470620614A9A
:100CE000089505948DE805020023AFF2A3725D48D4
:100CF000CDE903845CA1C43806F0A5FBCDE9064725
:100D0000192105945C4A0895CDF800A0CDE9012190
:100D10004FF480700023AFF6B702CDE903045648C4
:100D200056A1C43806F08FFB02F03AFB3178491E19
:100D300011F0FF01317007D15549098821B102F046
:100D400033FB04F027F801E002F02EFB09A9002094
:100D500006F05AFC0BB0BDE8F08F30B58BB04FF405
:100D6000A06001F0D7FB00F0F5F801F065F801F0A4
:100D7000D1F800F0B1FA00F049F9FFF79AFA01F062
:100D80001BFB00F0CFFE00F0B3FF00F0F3FF00F01C
:100D900069FD192001F07EFB09A803F01CFB02F09D
:100DA000FFFA1A4C2178491C217002F0FDFA00204C
:100DB00006AB09AA0321059083E8070080220C23D3
:100DC000CDE90232334D04900346AFF2C512CDE9AE
:100DD000001531A1A5F1C40006F035FB02F0E0FAE0
:100DE0002178491E11F0FF01217007D12849098897
:100DF00021B102F0D9FA03F0CDFF01E002F0D4FAFC
:100E000009A803F00EFD0BB0002030BD90030020B8
:100E100068656967685F7472616E735F73656D00A2
:100E2000E01800206C6F775F7472616E735F73659A
:100E30006D000000A80700204D51545420746173C8
:100E40006B0000006C0C00204F4C45442074617313
:100E50006B000000300F002073656E736F7220749A
:100E600061736B00B81600206C6F77207472616E2E
:100E700073207461736B0000F4110020686569676A
:100E800068207472616E73207461736B00000000DF
:100E900054030020E40400207374617274207461B0
:100EA000736B00007047FEE7FEE7FEE7FEE7704762
:100EB000704700000CB500224C4800920192016876
:100EC00041F4803101604FF4A063016801F4003106
:100ED00001910099491C0091019911B90099994219
:100EE000F3D10168890333D50121019140490A6892
:100EF00042F010020A600A6822F003020A600A68DF
:100F000042F002020A604168416041684160416804
:100F100041F480614160416821F47C114160416885
:100F200041F4E8114160016841F08071016001689D
:100F30008901FCD5416821F003014160416841F01D
:100F4000020141604168C1F381010229FAD10CBD5F
:100F500001920CBD254810B5016841F00101016006
:100F60004168244A114041600168234A11400160F0
:100F7000016821F480210160416821F4FE01416093
:100F80004FF41F018160FFF795FF1C494FF000608F
:100F9000086010BD154A10B55068194B10F00C01CF
:100FA000184803D0042901D0082901D0036012E0B9
:100FB0005168536801F470114FF0020413F4803F3C
:100FC00004EB914102D053689B0301D50E4B00E026
:100FD0000B4B5943016051680A4AC1F30311121DBA
:100FE000515C0268CA40026010BD0000001002405F
:100FF000002002400000FFF8FFFFF6FE08ED00E0D1
:1010000000127A002000002000093D0038B50121BF
:10101000042001F0AAFE10208DF8030003208DF8B3
:1010200002006020114CADF800006946204601F036
:1010300020FB2021204601F086FB4021204601F0C4
:1010400082FB38BD094A00284FF02001104601D02C
:1010500001F07BBB01F077BB044A00284FF0400150
:10106000104601D001F071BB01F06DBB00080140DA
:1010700013B54FF001036A4609B1402100E0002199
:10108000782000F07EFA1CBD10B50446B031C8B21D
:101090000021FFF7EDFF102040EA14100021FFF7B8
:1010A000E7FF04F00F00BDE810400021E0E710B5B5
:1010B00000218D20FFF7DCFF00211420FFF7D8FF6F
:1010C0000021BDE81040AF20D2E710B500218D20EF
:1010D000FFF7CEFF00211020FFF7CAFF0021BDE877
:1010E0001040AE20C4E770B5002505F1B000C0B2D5
:1010F0000021FFF7BDFF00210846FFF7B9FF0021DF
:101100001020FFF7B5FF002401210020FFF7B0FFFA
:10111000641CE4B2802CF7D36D1CEDB2082DE4D32F
:1011200070BD2DE9F041203A00240F468046D5B22B
:101130007F2803D900208F1C8046FFB2102B394630
:1011400010D0FFF7A1FF9E4905EB450001EB4005DC
:101150000121285DFFF78CFF641CE4B2062CF7D355
:10116000BDE8F081FFF790FF964E04EB05100121DA
:10117000305CFFF77DFF641CE4B2082CF5D37F1CC4
:10118000F9B24046FFF780FF002404EB051030441D
:101190000121007AFFF76CFF641CE4B2082CF4D341
:1011A000DEE70346012000E05843491EC9B2FBD2E6
:1011B00070472DE9F05F0027DDF828A01D46914615
:1011C0008B4680463C464FEA5A0623E0281B401EC9
:1011D000C1B20A20FFF7E5FFB9FBF0F00A21B0FB2E
:1011E000F1F201FB120027B9691E8C4201DA38B115
:1011F00001273030C2B206FB0480C0B2534604E07F
:1012000006FB0480C0B2534620225946FFF789FFEF
:10121000641CE4B2AC42D9D3BDE8F09F2DE9F041A3
:10122000984617460E46044600250DE043463146D3
:101230002046FFF776FF0834E4B2782C02D9002468
:10124000B61CF6B26D1CEDB27A5D002AEED187E7CE
:101250002DE9F04115460E460746FFF715FF5A489F
:10126000002400EB85150121285DFFF701FF641CB8
:10127000E4B2102CF7D3761CF1B23846FFF704FF26
:1012800000242819012190F82000FFF7F1FE641CCA
:10129000E4B2102CF5D363E72DE9F0471F469046E2
:1012A0000E4682460025DDF8209011E0314650467A
:1012B000FFF7EAFE544607E019F8050001216D1C0E
:1012C000FFF7D6FE641CE4B24445F5D3761CF6B2B3
:1012D000BE42EBD3BDE8F08710B500F09DF84FF4A7
:1012E000487000F0EEFD0021AE20FFF7C1FE0021A6
:1012F0000846FFF7BDFE00211020FFF7B9FE0021D0
:101300004020FFF7B5FE0021B020FFF7B1FE00211D
:101310008120FFF7ADFE0021FF20FFF7A9FE00218D
:10132000A120FFF7A5FE0021A620FFF7A1FE0021C6
:10133000A820FFF79DFE00213F20FFF799FE002126
:10134000C820FFF795FE0021D320FFF791FE002172
:101350000846FFF78DFE0021D520FFF789FE00210A
:101360008020FFF785FE0021D820FFF781FE0021B5
:101370000520FFF77DFE0021D920FFF779FE00212F
:10138000F120FFF775FE0021DA20FFF771FE002142
:101390001220FFF76DFE0021DB20FFF769FE002120
:1013A0003020FFF765FE00218D20FFF761FE002150
:1013B0001420FFF75DFE0021BDE81040AF2057E686
:1013C000EABF000812C20008340000200221D548FC
:1013D00001F0A5B9D34A10B500284FF0020110461C
:1013E00002D001F0B0F901E001F0AFF9BDE8104022
:1013F000052000F047BDCB4A10B500284FF004018E
:10140000104602D001F09FF901E001F09EF9BDE81D
:101410001040052000F036BD08B50121042001F080
:10142000A4FC0620ADF8000010208DF80300032076
:101430008DF802006946BB4801F01BF90120FFF757
:10144000C9FF0120FFF7D7FF08BD08B50220ADF89E
:10145000000010208DF8030003208DF8020069467B
:10146000B04801F006F908BD08B50220ADF800004B
:1014700048208DF803006946AA4801F0FAF808BD33
:1014800010B5FFF7E2FF0120FFF7A4FF0120FFF7EF
:10149000B2FF0020FFF79EFFBDE810400020AAE742
:1014A00010B5FFF7D2FF0020FFF794FF0020FFF7F1
:1014B000A2FF0120FFF79FFFBDE81040012089E750
:1014C00070B505460024FFF7C0FF0020FFF782FF3C
:1014D0000020FFF790FF05F08000FFF77BFF012061
:1014E000FFF789FF0020FFF786FF6806641C050EE2
:1014F000E4B2082CEFD3BDE8704000206AE770B575
:1015000000242546FFF7B0FF0020FFF774FF0120FD
:10151000FFF771FF6806060EFFF758FF40EA060561
:101520000020FFF768FF641CE4B2082CEFD32846C4
:1015300070BD10B5FFF798FF0020FFF75CFF01209A
:10154000FFF759FFFFF742FF04460020FFF753FF64
:10155000204610BD10B50446FFF777FF0020FFF7C7
:101560004AFF0020FFF736FF2046FFF733FF012038
:10157000FFF741FF0020FFF73EFFBDE810400020CD
:1015800028E72DE9F0411D46164688460746002407
:1015900002F0B2FFFFF774FF3846FFF791FFFFF745
:1015A000C8FF012807D04046FFF78AFFFFF7C1FFB9
:1015B000012802D00BE05CA012E060A010E0305DDA
:1015C000FFF77EFFFFF7B5FF012808D0641CAC428F
:1015D000F5DBFFF765FFBDE8F04102F098BF5CA0C6
:1015E00007F092FDBDE8F0415AE72DE9F0411D46B4
:1015F000164688460746002402F07EFFFFF740FFAC
:101600003846FFF75DFFFFF794FF012812D04046F0
:10161000FFF756FFFFF78DFF01280DD0FFF730FFD2
:1016200047F00100FFF74CFFFFF783FF012805D0CB
:101630006D1E10E03CA002E040A000E048A007F0D2
:1016400063FDBDE8F0412BE7FFF759FF305500205F
:10165000FFF780FF641CAC42F6DBFFF750FF30550C
:101660000120FFF777FFFFF71BFFBDE8F04102F015
:101670004EBF2DE9F04115460E460746002402F004
:101680003BFFFFF7FDFE3846FFF71AFFFFF751FF5C
:10169000012809D124A010E0305DFFF711FFFFF70A
:1016A00048FF012808D0641CAC42F5DBFFF7F8FEC8
:1016B000BDE8F04102F02BBF20A007F025FDBDE8FA
:1016C000F041EDE62DE9F04115460E4607460024AF
:1016D00002F012FFFFF7D4FE47F00100FFF7F0FE23
:1016E000FFF727FF012801D06D1E0CE01CA007F0BA
:1016F0000BFDBDE8F041D3E6FFF701FF30550020B8
:10170000FFF728FF641CAC42F6DBFFF7F8FE30550C
:101710000120FFF71FFFFFF7C3FEBDE8F04102F015
:10172000F6BE0000000801406465765F6164647283
:10173000206E6F2061636B0D0A0000006D656D5FA8
:1017400061646472206E6F2061636B0D0A0000009B
:10175000627566206E6F2061636B0D0A00000000E9
:101760006465765F616464727C30783031206E6FBE
:101770002061636B0D0A000010B5C821894808F08C
:10178000D9F889490020087010BD8749087830B120
:10179000864A1378984204D10020087070470120CF
:1017A00070471070FBE770B50E46C82400F030FD9E
:1017B00042F210750EE0FFF7E8FF40B93146794874
:1017C00008F012F818B1FFF7D7FF002070BD2846C7
:1017D00000F058FB641EE4B2EDD24FF0FF3070BD54
:1017E000F0B5734D03460324287899B0261F58B1ED
:1017F00070A276A1684607F093FC7CA16846FFF7CB
:10180000D2FF44F6206709E0304619B0F0BD3846F3
:1018100000F038FB75A16846FFF7C5FF0028F4D03B
:10182000641E14F0FF04F2D100202870ECE770B5BC
:1018300070A504246DA12846FFF7B5FF754E06E09C
:10184000304600F01FFB69A12846FFF7ACFF0028D7
:1018500007D0641E14F0FF04F2D15549002008702F
:10186000401E70BD00F064BC70B59CB0642102A83D
:1018700008F082F8FFF780FF00251BAC4FF4FA76E2
:1018800007E00022CDE9005433461146104606F029
:1018900086FE56A160A0FFF786FF0028F1D14AA17D
:1018A0005FA0FFF780FF0022CDE9005433461146C8
:1018B000104606F074FE4DA15CA0FFF774FF0028EF
:1018C000F1D15EA360A262A102A807F029FC07E0A3
:1018D0000022CDE9005433461146104606F05FFE63
:1018E00061A102A8FFF75FFF0028F1D136A00090A8
:1018F00035A360A261A102A807F012FC07E0002254
:10190000CDE9005433461146104606F048FE37A193
:1019100002A8FFF748FF0028F1D140F25B7362A2F2
:1019200065A102A807F0FCFB0CE05FA169A0FFF72E
:101930003AFF68B10022CDE9005433461146104603
:1019400006F02DFE29A102A8FFF72DFF0028ECD1FB
:1019500064A26BA102A807F0E3FB07E00022CDE937
:10196000005433461146104606F019FE1FA102A886
:10197000FFF719FF0028F1D10D49012008701CB0B4
:1019800070BD0B4810B500784FF0FF3440B12EA168
:1019900061A0FFF708FF18B1FFF749FF002800D04A
:1019A000204610BD7824002003030020F40200200C
:1019B00002030020736D6172745F61677269637501
:1019C0006C747572655F75690000000041542B4DA1
:1019D0005154545055423D302C222573222C22253F
:1019E00073222C302C300D0A000000004F4B0D0AE2
:1019F0000000000041542B4D5154545055423D308D
:101A00002C2274657374222C22222C302C300D0A67
:101A100000000000A086010041540D0A00000000F3
:101A200041542B5253540D0A0000000041542B43E3
:101A3000574D4F44453D310D0A00000031313634D9
:101A400034343230303300007465737400000000A9
:101A500041542B43574A41503D222573222C2225C5
:101A600073220D0A00000000474F542049500D0A10
:101A700000000000636C69656E74000041542B4DDA
:101A8000515454555345524346473D302C312C2236
:101A90002573222C222573222C222573222C302CF4
:101AA000302C22220D0A000033392E3130372E32ED
:101AB00032382E323032000041542B4D51545443B1
:101AC0004F4E4E3D302C222573222C25642C300D98
:101AD0000A00000041542B4D515454434F4E4E3F89
:101AE0000D0A0000736D6172745F616772696375DE
:101AF0006C747572655F636C69656E7400000000DC
:101B000041542B4D5154545355423D302C22257392
:101B1000222C300D0A00000041542B43574A4150FB
:101B20003F0D0A00FFF778BC2DE9FC410446012275
:101B300069467020FFF7C6FD9DF80000C0F3C100A4
:101B4000032802D041A007F0DFFA0F2000F0B9F916
:101B5000AC208DF8000033208DF8010000258DF8B1
:101B60000250032269467020FFF783FD552000F0E4
:101B7000A8F90A2000F0A5F9012269467020FFF7B4
:101B8000A1FD072269467020FFF79CFD9DF801002A
:101B90009DF80230020E0002181845EB02010902FE
:101BA0009DF8033002029A1841EA106145EB0100EA
:101BB000110941EA0071020942F21070A1FB0067AD
:101BC00002FB0070002301FB0301300D40EA0130ED
:101BD000090D07460E46642207F00DFA20706422B4
:101BE00000233846314607F006FA62709DF803007C
:101BF0009DF8043000F00F00C10F0A0242EA1062A3
:101C00000002181845EB0201090241EA10619DF833
:101C10000520000210184D4144F62061A0FB01365A
:101C200005FB0161002200FB0210190D41EA0031A1
:101C3000020D0A480023081842F1FF31642207F020
:101C4000DAF9A070E270BDE8FC810000307831382C
:101C5000206572726F720D0A0000000078ECFFFFC1
:101C600010B5FFF70DFC4620FFF72AFCFFF761FCDB
:101C7000012807D00120FFF723FCFFF75AFC0128B9
:101C800002D004E01DA000E025A007F03DFABDE869
:101C90001040FFF705BCF8B502236A462021462014
:101CA000FFF7A3FC9DF80140600809F0BDFE054662
:101CB0000E4604F0010009F0B7FE4FF0FF320AF0C3
:101CC00046F904469DF800000F46C00109F0ACFE3D
:101CD00022463B4609F05CFC2A46334609F058FC94
:101CE00001B04FF03332BDE8F040164B09F000BDB3
:101CF00010B5FFF791FBBDE81040B1E762683137DE
:101D000035305F706F7765725F6F6E206465765FE8
:101D100061646472206E6F2061636B0D0A000000C5
:101D20006268313735305F706F7765725F6F6E2034
:101D30006D656D5F61646472206E6F2061636B0D11
:101D40000A0000003333F33F01B501236A46102136
:101D5000A620FFF716FC08BD01B501239DF8000081
:101D60006A4640F002008DF800001121A620FFF71E
:101D700008FC08BD10B50220FFF7E6FF142000F0B4
:101D8000A0F80020FFF7E8FFBDE81040142000F0A5
:101D900098B8012302462021A620FFF726BC7CB577
:101DA00005460220FFF7D0FF6846FFF7F2FF002448
:101DB00008E0142000F085F86846FFF7EAFF641C8D
:101DC000052C04DA9DF800008007F2D503E09DF8A9
:101DD000000080070FD5022301AA2421A620FFF7C7
:101DE00004FC9DF8050028809DF8041041EA0020BD
:101DF000288000207CBD4FF0FF307CBD08B56846D0
:101E000002F0ECFB08BD08B5684602F020FC08BDF6
:101E100008B56A46082106F073FB08BD364810B5C0
:101E20000078012807D102F067FB06F0C6FCBDE888
:101E3000104002F06CBB10BD10B56FF0040000F054
:101E4000AEFB2E482E492F4B0068304CB0FBF1F210
:101E5000B0FBF1F01A702C4A1168B4FBF1F1414368
:101E600010684FF47A72B2FBF0F058804FF0E02027
:101E7000026942F0020202614161016941F001011F
:101E8000016110BDF8B54FF0E02700247E691D49BF
:101E9000097800FB01F5684602F0A0FBB969B86952
:101EA0008842FCD002D2A1EB000102E0A6EB0002C6
:101EB00011440C440146AC42F1D3684602F0C7FB22
:101EC000F8BD70B504460C48007878B11048007829
:101ED00060B90C4D6888844203D3B4FBF0F0FFF77F
:101EE00097FF6888B4FBF0F100FB11444FF47A705F
:101EF0006043BDE87040C5E7490300202000002092
:101F000000127A00F6020020F8C9000840420F00D3
:101F10004803002030B5012187B0880300F025FF79
:101F20000121042000F021FF18208DF813004FF448
:101F30000070ADF810007A4D03248DF8124004A90A
:101F4000284600F096FB48218DF813102815ADF8AF
:101F500010008DF8124004A9284600F08AFB4FF4C7
:101F60001650009000200C21ADF80A10ADF80600C4
:101F70006C4CADF80C00ADF80800ADF804006946F3
:101F8000204600F081FC012240F22551204600F05D
:101F9000F8FC4FF4A06000F0BDFA25208DF8140085
:101FA00001218DF817108DF815108DF8161005A861
:101FB00000F0B5FA0121204600F0D9FC07B030BD91
:101FC00010B5584C0146204600F027FD80212046E0
:101FD00000F084FD0028F9D010BD10B50446000EB5
:101FE000FFF7EEFFC4F30740FFF7EAFFC4F3072053
:101FF000FFF7E6FFE0B2BDE81040E1E770B50D463F
:102000000646002404E0305DFFF7DAFF641CA4B24A
:10201000AC42F8D370BD70B50546002403E0FFF76D
:10202000CFFF641CE4B2285D0028F8D170BD0346E0
:10203000012000E05843491EFCD270472DE9F041D1
:1020400000240E4607460A250FE0311B0A20491ED0
:10205000FFF7EDFFB7FBF0F0B0FBF5F105FB11006A
:102060003030FFF7ADFF641CE4B2B442EDD3BDE8FD
:10207000F08170472B490A885206FCD5294AC1B223
:10208000121D118070470FB400B599B01BAA6846A5
:102090001A9907F027F86846FFF7BDFF19B05DF8F9
:1020A00014FB214800787047204870472DE9F04123
:1020B00002F022FA1B4E40F225573946304600F016
:1020C00017FD01281AD1304600F0ABFC164C002554
:1020D000C0B22178C82900D325700D280AD0232842
:1020E00010D00A2810D02178C72903D20F4A5054A3
:1020F000491C21703946304600F019FDBDE8F04119
:1021000002F005BA2570F5E708492278A1F1C80068
:1021100007F0CBFB05482178C8384554EAE70000B2
:102120000008014000380140FA020020202200206F
:1021300030B5012187B0880400F020FE012108207D
:1021400000F013FE18208DF813004FF48060ADF8F6
:102150001000894D03248DF8124004A9284600F090
:1021600088FA48218DF81310E814ADF810008DF8A6
:10217000124004A9284600F07CFA4FF4E1300090A8
:1021800000200C21ADF80A10ADF806007B4CADF82C
:102190000C00ADF80800ADF804006946204600F0D8
:1021A00073FB012240F22551204600F0EAFB4FF478
:1021B000A06000F0AFF927208DF8140001218DF800
:1021C00017108DF815108DF8161005A800F0A7F956
:1021D0000121204600F0CBFB07B030BD10B5674CA5
:1021E0000146204600F019FC8021204600F076FCD4
:1021F0000028F9D010BD70B50D460646002404E055
:10220000305DFFF7EBFF641CA4B2AC42F8D370BDA5
:1022100070B50546002403E0FFF7E0FF641CE4B25C
:10222000285D0028F8D170BD0346012000E0584326
:10223000491EFCD270472DE9F04100240E460746A6
:102240000A250FE0311B0A20491EFFF7EDFFB7FBFF
:10225000F0F0B0FBF5F105FB11003030FFF7BEFFE9
:10226000641CE4B2B442EDD3BDE8F0810FB400B514
:1022700099B01BAA68461A9906F034FF6846FFF722
:10228000C7FF19B05DF814FB3D48407870473D48E2
:1022900070472DE9F04102F02FF9384E40F22558F1
:1022A0004146304600F024FC01281DD1304600F0A4
:1022B000B8FB334C0025C0B26178C82900D36570E3
:1022C000304F2B2804D00D280AD00A2813D001E063
:1022D000617869B16178C72902D27854491C61706C
:1022E0004146304600F023FCBDE8F04102F00FB952
:1022F00001202070F4E72078012860783D5416D042
:10230000E1780844801CC72802D91F48E570057091
:102310001C491D4807F0BDFA1CA11B4807F0B9FA7B
:10232000E07861780844801CE0706570D8E718A1F7
:10233000144807F059FAB84213D119A1114807F00F
:1023400053FA17A1401C07F04FFA15A1401C07F0E3
:102350004BFA411C407858B10A48C83007F056FA89
:1023600006E010A1074807F03FFAB84200D1A57077
:1023700065702570B4E70000000C01400048004083
:1023800000030020E8220020782400200D0A00002D
:102390004D515454535542524543563A00000000A3
:1023A0002C0000004D515454444953434F4E4E4568
:1023B000435445443A00000070B5012186B04802FC
:1023C00000F0D3FC0121042000F0CFFC4FF40040CA
:1023D00000F05FFC00248DF817400126ADF8146072
:1023E00003208DF8160005A9264800F042F9264D75
:1023F000052301220021284600F0A2FD4FF46020B1
:10240000CDE902048DF8054000948DF810608DF838
:1024100004406946284600F013FD0121284600F0DB
:1024200037FD284600F051FD284600F05FFD0128E9
:10243000FAD0284600F055FD284600F057FD012847
:10244000FAD006B070BD10B50F4C0121204600F047
:1024500054FD0221204600F047FE0028F9D0204616
:1024600000F0B2FDC0F5486009F0C7FA0022074B42
:1024700009F03EF90022064B09F0EAFA09F090FA59
:10248000C0B210BD000801400024014000C0A240BD
:102490000000594010B5044645F2555000F04CFE7E
:1024A000062000F04CFE204609F0BEFA0022084B40
:1024B00009F0CEFA09F074FA80B200F043FE00F0A1
:1024C00044FEBDE8104000F045BE00F03EBE0000F6
:1024D000008863400948804709480047FEE7FEE757
:1024E000FEE7FEE7FEE7FEE7FEE7FEE7FEE7FEE7C4
:1024F00004480549054A064B70470000550F00087F
:10250000ED00000868450020684F00206847002063
:10251000684700202849084328490860704730B5BB
:102520000F23C27801780125F2B1244A126801F123
:10253000E02102F4E062C2F5E062120AC2F1040492
:10254000D3404278A24084781C401443220181F891
:102550000024007800F01F018D404009800000F148
:10256000E020C0F8005130BD01F01F00854048094F
:10257000800000F1E020C0F8805130BD104A1140C9
:1025800001430E48001F016070470C4A121D0029CC
:10259000116801D0014300E08143116070474FF0A2
:1025A000E0210428086903D020F004000861704786
:1025B00040F00400FAE700000000FA050CED00E02E
:1025C00080FFFF1F8F4910B5884206D101210420EA
:1025D00000F0DDFB002104203BE08B49884206D15E
:1025E0000121082000F0D3FB0021082031E08749B9
:1025F000884206D10121102000F0C9FB00211020E3
:1026000027E08349884206D10121202000F0BFFB4A
:10261000002120201DE07F49884206D10121402071
:1026200000F0B5FB0021402013E07B49884206D131
:102630000121802000F0ABFB0021802009E07749D8
:1026400088420AD184150121204600F0A0FB002118
:102650002046BDE8104000F09ABB10BD10B5012126
:10266000084600F094FB0021BDE81040012000F076
:102670008EBBF0B5CC78002204F00F03E40601D540
:102680008C7823430C784FF00F0C14F0FF0F4FF0B1
:10269000010E1BD005680E880EFA02F42640A642F1
:1026A00010D196000CFA06F725EA070703FA06F59B
:1026B000CE783D43282E02D0482E02D002E044615D
:1026C00000E00461521C082AE5D305600A88FF2A4D
:1026D0001CD94468002202F108060EFA06F50E889D
:1026E0002E40AE420ED196000CFA06F7BC4303FA18
:1026F00006F7CE783C43282E00D14561CE78482E8F
:1027000000D10561521C082AE5D34460F0BD4FF6A4
:10271000FF710180022181700421C170704702465F
:10272000002092680A4200D001207047806880B281
:10273000704702460020D2680A4200D0012070474C
:10274000C06880B2704701617047416170470AB14B
:102750000161704741617047C160704741F4803248
:102760008261816182618169806970472C4B10B5FB
:102770001A684FF68074224042EA0010084318603D
:1027800010BD2849C8617047F0B5254C002801DA12
:10279000E36900E06368450D2E0185B2C0F301577F
:1027A000B540C0F30342032F05D0C6020AD5032665
:1027B0009640B34307E023F07062636823F07063D0
:1027C000636002E0AB4343F0706201B12A4300282A
:1027D00001DAE261F0BD6260F0BD10B58A0721F058
:1027E00003040F49120F21440F238C6893409C432C
:1027F0008C608B68904003438B6010BD0949C1F821
:10280000DC00704700080140000C0140001001404E
:102810000014014000180140001C0140002001404C
:102820000000014000002042C44910B588420AD18E
:1028300001218C03204600F0AAFA2046BDE8104092
:10284000002100F0A4BABE49884202D101214C0403
:1028500010E0BC49884202D101218C040AE0BA4947
:10286000884202D10121CC0404E0B84988420AD14F
:1028700001210C05204600F093FA2046BDE81040E7
:10288000002100F08DBA10BD30B50446008A85B035
:102890000D464CF6FF710840E98801432182A0896A
:1028A0004EF6F3110840A9882A8911436A89024328
:1028B0001143A181A08A4FF6FF410840A989014335
:1028C000A182684600F006FA9C48844201D1039830
:1028D00000E00298A189090400EBC00101EB00109F
:1028E000296801D5490000E08900B0FBF1F06422BD
:1028F000B0FBF2F109010B096FF018056B4300EB17
:102900008300A3891D044FF0320306D503EBC000FA
:10291000B0FBF2F000F0070005E003EB0010B0FBA5
:10292000F2F000F00F000843208105B030BD4FF4F5
:102930001651016000218180C18001810C224281F9
:102940008181704710B5028A4FF2FF031A400B884D
:102950004C8823438C88C9880C4323431343038248
:1029600010BD0021018041808180C1807047002915
:10297000818902D041F4005101E021F400518181AC
:10298000704710B5C1F3421301F01F040121A140AB
:10299000012B07D0022B07D01430002A026805D083
:1029A0000A4304E00C30F8E71030F6E78A4302608F
:1029B00010BD002A828A01D00A4300E08A43828245
:1029C0007047028A22F00F020282028A0A430282C0
:1029D0007047828922F40062828182890A4382815F
:1029E00070470029818902D041F0020101E021F005
:1029F000020181817047028A22F020020282028A4B
:102A00000A43028270470029018A02D041F48041C2
:102A100001E021F4804101827047C1F30801818007
:102A200070478088C0F308007047818941F0010138
:102A300081817047028BD2B20283028B42EA01216C
:102A400001837047028B02F47F420283028B0A43A8
:102A5000028370470029818A02D041F0200101E001
:102A600021F02001818270470029818A02D041F043
:102A7000100101E021F01001818270470029818A54
:102A800002D041F0080101E021F008018182704785
:102A90000029818902D041F4004101E0C1F30E0117
:102AA000818170470029818A02D041F4006101E0F0
:102AB00021F4006181827047828A22F004028282BE
:102AC000828A0A43828270470029818A02D041F0BB
:102AD000020101E021F002018182704702460020DC
:102AE00012880A4200D001207047C9430180704714
:102AF00070B501F01F0501260024C1F3421306FA48
:102B000005F2012B0FD0022B0FD0838A4FEA11213F
:102B10000088134206FA01F600EA060001D000B16F
:102B20000124204670BD8389F0E7038AEEE70A0A94
:102B300001219140C94301807047000000380140E5
:102B40000044004000480040004C0040005000405D
:102B5000A548016841F0010101604168A34A1140A4
:102B600041600168A24A11400160016821F480219E
:102B70000160416821F4FE0141604FF41F01816052
:102B8000704799490A6822F480320A600A6822F480
:102B900080220A60B0F5803F07D0B0F5802F03D1C6
:102BA000086840F4A02008607047086840F480304E
:102BB000F9E70346002059098B4A01290AD0022966
:102BC0000AD0516A03F01F02012393400B4200D048
:102BD000012070471168F5E7116AF3E718B5002086
:102BE0004FF4A06400903120FFF7E3FF0099491CE7
:102BF0000091A14201D00028F5D03120FFF7D9FF84
:102C0000002800D0012018BD774A116821F0F80192
:102C100041EAC00010607047764908607047724B07
:102C20005A68084322F47C12104358607047714977
:102C3000086670476C4A516821F0030101435160F6
:102C400070476948406800F00C007047664A516858
:102C500021F0F001014351607047634A516821F44B
:102C6000E0610143516070475F4A516821F460514F
:102C700041EAC000506070475B4A0029517A01D098
:102C8000014300E08143517270475A49C1F8D800AE
:102C90007047554A516821F44041014351607047E3
:102CA0005149002281F8202081F82020012802D0FB
:102CB000042802D1052081F8200070474E490860A1
:102CC000704749490A6A02430A6270474A494439CF
:102CD0000860704730B5444A5168484B11F00C0108
:102CE00003D0042901D0082901D0036012E0516803
:102CF000536801F470114FF0020413F4803F04EBA9
:102D0000914102D053689B0301D53D4B00E03B4B02
:102D10005943016051680F2303EA1111394B5C5C80
:102D20000168E14041605468072505EA14241C5DF0
:102D300021FA04F48460546805EAD4241B5DD94068
:102D4000C1605268032303EA92322E4B1B1F9A5C28
:102D5000B1FBF2F1016130BD234A0029516901D074
:102D6000014300E08143516170471F4A0029916986
:102D700001D0014300E08143916170471A4A002964
:102D8000D16901D0014300E08143D1617047164A07
:102D90000029D16801D0014300E08143D160704730
:102DA000114A0029116901D0014300E081431161FA
:102DB000704711494039086070470E49C864704730
:102DC0000949C87170470848416A41F08071416201
:102DD0007047054A0146002092680A4200D001204F
:102DE0007047014988727047001002400000FFF8E8
:102DF000FFFFF6FE000042428004424200127A00C9
:102E000000093D0008030020C54910B5884202D1E1
:102E1000012144150AE0C349884202D10121041569
:102E200004E0C14988420AD10121CC032046FFF7C2
:102E3000AEFF2046BDE810400021FFF7A8BF10BD3F
:102E400010B54268B94B0C791A400B6842EA04226B
:102E5000134343608268B64B1A40D1E902432343CF
:102E60004C7942EA440213438360C26A097C22F42B
:102E70007002491EC9B242EA0151C16210BD00216F
:102E80000160017141718160C1600121017470476D
:102E90000029816802D041F0010101E021F0010127
:102EA000816070470029816802D041F4807101E09F
:102EB00021F4807181607047002A4268C9B201D054
:102EC0000A4300E08A4342607047816841F008018C
:102ED00081607047014600208968090700D50120FC
:102EE0007047816841F0040181607047014600200D
:102EF0008968490700D5012070470029816802D000
:102F000041F4A00101E021F4A00181607047014675
:102F100000208968490200D5012070474268491E97
:102F200022F4604242EA4131416070470029416821
:102F300002D041F4006101E021F40061416070477A
:102F400070B5072609290AD9C568A1F10A0404EB5E
:102F50004404A640B543A3401D43C56007E005698E
:102F600001EB4104A640B543A3401D4305611F2367
:102F7000072A09D2446B521E02EB820293409C4303
:102F800091400C43446370BD0D2A09D2046BD21FDB
:102F900002EB820293409C4391400C43046370BD5A
:102FA000C46A0D3A02EB820293409C4391400C4369
:102FB000C46270BD0029816802D041F4801101E033
:102FC00021F4801181607047C06C80B27047544812
:102FD0004C30006870470029416802D041F480619C
:102FE00001E021F48061416070470029416802D00E
:102FF00041F4805101E021F48051416070478268C2
:1030000022F4E0420A43826070470029816802D0BE
:1030100041F4004101E021F4004181607047002942
:10302000816802D041F4021101E021F402118160B3
:103030007047014600208968890200D50120704749
:1030400070B5072609290AD9C568A1F10A0404EB5D
:103050004404A640B543A3401D43C56007E005698D
:1030600001EB4104A640B543A3401D430561836BBA
:10307000C3F30154121B921C02EB82021F249440E2
:10308000A34391400B43836370BD826B491E22F4BE
:10309000401242EA01518163704708B5084400902C
:1030A000026008BD08B5084428300090006880B26E
:1030B00008BD42681F4B1A400A4342607047416294
:1030C00082627047426822F01F020A4342607047E2
:1030D000134908310028086802D040F4000001E0DC
:1030E00020F40000086070470246002012680A427F
:1030F00000D001207047C9430160704710B50246F7
:10310000002054680B0AC9B20C401168194202D061
:10311000002C00D0012010BD6FEA11210160704722
:103120000024014000280140003C0140FFFEF0FF68
:10313000FDF7F1FFFFFD3FFF0D49086070470C49A7
:10314000486070470A498860704709494AF6AA20D2
:103150000860704706494CF6CC4008607047044A46
:1031600001460020D2680A4200D0012070470000CA
:103170000030004000B585B06846FFF7ABFD019810
:1031800005B000BD10B5FFF7F5FF11490A6842F020
:1031900080720A600F4900224A600A6842F0010208
:1031A0000A60BDE8104000F075B80A4840687047F2
:1031B00010B50446FFF7DEFF0021074A0B4605F075
:1031C0001AFF02460B462046002105F014FF10BDF1
:1031D000FCED00E0001000E040420F0010B500F0F0
:1031E000DFF804461021694800F0D8F92046BDE810
:1031F000104000F0D9B8664910B500200860FFF70C
:10320000C1FFBDE81040E9E7FEE770B505460C00D8
:103210000ED075B100F0C4F8064610225B4928466E
:1032200000F0C4FC304600F0BFF80020208070BDE4
:10323000FEE70A20088070BD70B50C00054612D06C
:1032400095B1102100F0A4FC102810D200F0A8F8CD
:103250000646102229464D4800F0A8FC304600F0F2
:10326000A3F8002005E0FEE70A20088070BD4FF4B7
:103270007A70208070BDFFF798BF7047020004D0BD
:103280004348006810B1002102E0FEE74FF4FA6104
:10329000118070473E490860704710B500F08BF808
:1032A000183810BD10B500F086F8103810BD00F0C9
:1032B00082B8F0B50C0E0B0C0D0A0026354AD0F181
:1032C000FF378E411BD24FF6FF76D0F1FF378E418C
:1032D0000AD26FF07F45D0F1FF308D4101D2105DF1
:1032E000F0BDD05C0830F0BDFF23D0F1FF308B4142
:1032F00002D2505D1030F0BD505C1830F0BD4FF67A
:10330000FF740023241A8B4111D26FF07F440023F5
:10331000241A8B4105D2000E40EA0120105C2030B7
:10332000F0BD000C40EA0140105C2830F0BD0023E5
:10333000D0F1FF048B4105D2000A40EA0160105C25
:103340003030F0BD105C3830F0BD08B100F036B858
:103350000820704708B100F031B81020704708B15C
:1033600000F02CB82020704700B550EA01020BD0C5
:10337000C243521CCB4343F1000310401940FFF7F6
:1033800098FFC0F13F0000BD402000BD4025002057
:103390001803002002C8000872B6704762B6704772
:1033A000EFF3108072B6704780F31088704730BF1B
:1033B000704720BF7047B0FA80F0704790FAA0F0D5
:1033C000B0FA80F0704790FAA0F07047A0F1410188
:1033D000192902D96138192801D801207047002025
:1033E0007047A0F14101192905D92039192902D9BD
:1033F0003038092801D80120704700207047613813
:10340000192801D801207047002070474138192839
:1034100001D801207047002070473038092801D8B2
:1034200001207047002070473038072801D801205C
:10343000704700207047A0F13001092905D91139E2
:10344000052902D96138052801D8012070470020DC
:103450007047202803D0092801D0002070470120A0
:10346000704720280BD00D2809D00A2807D00C2837
:1034700005D0092803D00B2801D000207047012077
:10348000704720385E2801D801207047002070471F
:1034900021385D2801D80120704700207047A0F135
:1034A00020015E2916D8202814D00D2812D00A2811
:1034B00010D00C280ED009280CD00B280AD02139A6
:1034C0001A2907D320391A2904D330380A2801D3FE
:1034D000012070470020704741B2002901DB1F28FE
:1034E00003D97F2801D00020704701207047A0F148
:1034F0004101192900D82030C0B27047A0F1610104
:10350000192900D82038C0B2704700B50B46FFF724
:10351000F5FF02461846FFF7F1FF824201D1012074
:1035200000BD002000BD0000FD48FE490246C0E984
:10353000001200218160C160016141618161C1614E
:1035400001620163C162416200F148018163C163AC
:103550004FF4806101644164F3480260704710B524
:1035600000231C46641C41EA0323042CFAD310F008
:10357000030404D109E0521E00F8011B641C22B1AF
:10358000042CF8D301E008C0121F042AFBD202E089
:1035900000F8011B521E002AFAD110BD0A46002174
:1035A000DDE730B4814202D930BC00F0C5BD104423
:1035B0001144401E491E431A042B28D300F0030374
:1035C00001F00304A34201D1012400E00024F4B17E
:1035D000032B07D109E05B1E11F8014900F80149EE
:1035E0005BB2521E0AB1002BF5DAC01EC91E04E000
:1035F00051F8043940F80439121F042AF8D2C01CCB
:10360000C91C04E011F8013900F80139521E002AE2
:10361000F8D130BC704770B5034662B16BB161B18F
:1036200013441144012003F0030401F00305AC42EC
:1036300005D1012504E0012070BD002070BD0025EA
:10364000DDB1BCB113F8015D11F8016DB54200D0D8
:103650000020521E641E0128F0D1002AF1D109E099
:1036600053F8044D51F8045DAC4200D00020121F05
:1036700001280AD1042AF3D207E013F8014D11F80A
:10368000015DAC4200D00020521E0128D6D1002A94
:10369000F3D170BD30B5C36BB3FBF2F402FB14344D
:1036A0000CB1121B00E00022446C11448C4201D288
:1036B000002030BD5D18611AC5631A44416410468C
:1036C00030BD10B5B0FBF3F403FB140000B1181AC1
:1036D000B2FBF3F403FB14240CB11B1B00E000232A
:1036E00010441A44491E02FB010010BD2DE9FC5F85
:1036F0001F4614008A46834600D101AC0020884E44
:103700002060FFF74DFE009053465A460121D6F83F
:103710004480F06BFFF7D5FF054642F2E279404561
:1037200006D90098FFF740FEA5EB0800206012E0E4
:10373000524659463046FFF7ADFF0600009807D0C5
:10374000FFF732FE42F2107038803046BDE8FC9F31
:10375000FFF72AFE2560A7F800900020F6E72DE984
:10376000F04116460D460446FFF71AFE6368996B52
:1037700001B96B4BDF6B5C6CFFF716FE012D06D9B0
:10378000B7FBF5F005FB107000B1281A241A42F2BD
:10379000107030802046BDE8F0810A46014660483E
:1037A000DDE7B8B1614A0260002242608260C26017
:1037B000026142618261C2610262826242630263AB
:1037C000C26242628263C2630264426442F2107067
:1037D0000880704742F21170FAE72DE9FF4F89B077
:1037E0008A46DDE91879044607B906AF002038603B
:1037F00049462046FFF7D5FFB9F80010A1F51C5047
:10380000103859D14848006890B10020DFF8108185
:103810000290FFF7C5FD0590BAF100000BD00246FB
:103820000B98002613184048B3465B1E056848E015
:1038300042F2E7713EE0D8F83C1003910423C346FE
:1038400045461A460C990398FFF73BFF03990490ED
:1038500008440890DDE916230C99FFF732FF009029
:1038600000990498464608440290D8F84410019103
:10387000884261D90598FFF797FDDDE901103CE02A
:10388000A86B504506D1D5F840C00B998C4501D1A5
:103890002E4618E0296C0144491E834213D382420C
:1038A00003D98B4201D98A4209D80598FFF77CFDDC
:1038B00042F27F71A9F800100DB0BDE8F08FAB4661
:1038C000ED68002DDCD136B9C4E90EAA0B9820644E
:1038D0000B982646606404231A46D8F83C000C99DD
:1038E000FFF7EFFE0490D8F844100191884206D902
:1038F0000598FFF759FD01990498401A34E0F06BE0
:103900000890DDE916230C99FFF7DBFE0090716C3F
:103910000191884210D90598FFF746FD08E00000A4
:1039200050250020484541501C0300204E4F4E4575
:10393000DDE90001401A46E00C98042280000146AF
:1039400001904046FFF7A6FE039008B100201CE05E
:10395000D8F844400598FFF727FDBAF1000F07D0CB
:103960000198A04200D9001B386042F2E27054E096
:103970000298F6E7DDE916123046FFF78BFE90B1AC
:10398000039941F8280008F101000C99804688420B
:10399000F0D3A64220D1C4E902B55FEA0B0016D0ED
:1039A000CBF80C4015E0F56B746C0598FFF7FCFC48
:1039B0000C98DDE91623A0EB08012846FFF781FEED
:1039C000A04200D9001B386042F2D87025E06E4852
:1039D00004603DB1AC6005E07069C4E904607461E5
:1039E00000B104616948C4E900060898A061009923
:1039F00008980844401EE061039820620098A06285
:103A000017986063169820630C98E0620C986062C7
:103A10000598FFF7C9FC42F21070A9F800004BE7C7
:103A200070B50D460446FFF7BBFC646AFFF7BCFCAB
:103A300042F210702880204670BD70B515460446CD
:103A4000FFF7AEFC616A49B1E26A91420BD9FFF718
:103A5000ABFC42F295702880002070BDFFF7A4FCFB
:103A600042F2DE70F7E7491E6162226A52F8214095
:103A7000FFF79AFC42F210702880204670BD70B5A6
:103A800014460E460546FFF78BFCEA6A911B491E59
:103A900042F295768A4202D96A6A8A4204D9FFF7CD
:103AA00083FC2680002070BD2A6A52F82150FFF75F
:103AB0007BFC42F210702080284670BD2DE9F04159
:103AC00016460D460446FFF76BFCE76A626A8446B9
:103AD000BA4204D3FFF768FC42F2DD701EE04FF0FB
:103AE000000E1346206A04E050F82310A94205D0C6
:103AF0005B1C9F42F8D8BEF1000F03D050F8221093
:103B000040F82310D4E9080140F82150606A401CB5
:103B100060626046FFF748FC42F2107030803AE67F
:103B20002DE9F04115460E4604464FF0FF37FFF7EA
:103B300037FC0246E16A606A884205D31046FFF707
:103B400033FC42F2DD701CE04FF0000C05E0236A0C
:103B500053F82030B34205D0401C8142F7D8BCF165
:103B6000000F09D00C1A1046641EFFF71DFC42F22C
:103B70001070288020460EE61046FFF715FC42F232
:103B800088702880384606E61C030020504F4F4CB2
:103B9000002201E0401C521C18B103780BB18A428C
:103BA000F8D3104670474FF0FF31F1E730B50028E9
:103BB00011D089B10346002405E0491C03F8015BDC
:103BC000641C4BB141B10D780DB19442F5D39442D0
:103BD00001D20021197030BD002030BD4FF0FF32FE
:103BE000E4E730B5002816D0B1B1002A13D003465F
:103BF00001E05B1C10D01C78002CFAD104E0491CB9
:103C000003F8015B641C3BB131B10D780DB19442F6
:103C1000F5D30021197030BD002030BD4FF0FF32C8
:103C2000DFE7F0B532B330B111B304460B46401CA8
:103C3000491C002508E0E9B108784042F0BD401C6D
:103C4000491C5B1C641C6D1C26781F78BE4204D185
:103C50001EB110B109B19542F1D395420AD0F4B228
:103C6000FAB2944201D0B01AF0BD1EB10028E2D0E1
:103C70000078F0BD0020F0BD4FF0FF32D1E72DE914
:103C8000F0475FEA020A41D070B181B10446461C98
:103C90000F464D1C0078FFF72AFC81463878FFF765
:103CA00026FC4FF0000811E079B3087829E000788D
:103CB00021E008F1010814F8010F6D1C761C7F1C2F
:103CC000FFF715FC81463878FFF711FC814505D1D7
:103CD000217819B116B10DB1D045EAD3D04515D030
:103CE0004946814503D0A9EB0000BDE8F0870800F4
:103CF000FBD026B13078BDE8F047FFF7F8BB25B11F
:103D00002878FFF7F4FB4042EFE7FFE70020ECE7FD
:103D10004FF0FF32B3E710B5002812D081B1002375
:103D200003E0401C03F101030BD004781CB1944262
:103D300001D08B42F5D38B4202D2E1B2914200D046
:103D4000002010BD0A464FF0FF31E4E730B51546BC
:103D500004000FD071B1491EFFF71AFF20180AD0D6
:103D600000E0401EA04202D00178A942F9D10178BA
:103D7000A94200D0002030BD0A464FF0FF31E5E7F0
:103D800030B5002803D00BB1044607E0002030BD59
:103D90008D4200D122705B1E641CF8D02578002D66
:103DA000F5D0002BF4D130BD4FF0FF33E8E72DE91B
:103DB000F0418C46060032D0BCF1000F2FD072B318
:103DC000501C01D0511C01E04FF0FF310D4611464F
:103DD0003046FFF7DDFE044629466046FFF7D8FE71
:103DE000050014D0A5421AD8301911D01CEB0500DB
:103DF0000ED0671B0024301980462A466146FFF723
:103E000010FF010006D00020641C28B106E03046F7
:103E1000BDE8F0810120F7E7BC42ECD909B10020F0
:103E2000F6E74046F4E74FF0FF32C0E72DE9FF5FC9
:103E3000074611980E9D1446894600286CD000262E
:103E4000B246B9F1000F00D10126A01E232800D3ED
:103E5000012615B32846FFF714FB01281CD1302D8D
:103E60001BD0A5F13000C1B20F98012802D0A5F1F6
:103E7000410001E0A5F16100C0B20A2C02D8A142C4
:103E800006D307E00A2903D3A4F10A01884201D22C
:103E9000012000E0002000B10126119A56BBB8466F
:103EA000012003E0B8FBF4F8401CC0B2A045F9D2F1
:103EB0000399012900D0002100EB010CCC4518D852
:103EC0004FF0000B4B46484500D318464DB1A9EBC7
:103ED0000000401A4B4610F0FF0F04D0302D04D0E4
:103EE00001E00844C3B2002000E0012082460EB980
:103EF00001E001264B461099D01809B1002101704C
:103F00000021401E04E056B13F2200F80129491C5F
:103F10009942F8D39EB3002004B0BDE8F09F27B9C2
:103F200019B1039A012A16D024E0B7FBF4F204FB7E
:103F30001272D2B20A2A01D2303207E0DDF83CC058
:103F4000BCF1010F01D0373200E05732B7FBF4F774
:103F500000F80129DBE75AEA0B0205D0BAF1000F9D
:103F600008D05A1E914205D12D2200F801294FF0A8
:103F7000010BCCE7002DCAD000F80159C7E7FFE7D5
:103F80001198C9E77FB50DF1200C9CE870008DE811
:103F900078000023FFF74AFF04B070BD2DE9FF4110
:103FA0001C46DDE90B650A9F002802DA4042012326
:103FB00000E00023CDE90047CDE90265FFF736FFB9
:103FC00004B025E72DE9FF5F1E4615465FEA0109AB
:103FD000824601D10DF10809C9F800A00E9808B970
:103FE00003A80E9000210170BAF1000003D0012D4A
:103FF00001D0242D01D900208EE70446007801E08D
:1040000014F8010FFFF72DFA0128F9D020782B289A
:1040100003D02D2805D0002007E04FF0000B641CD2
:1040200004E0012E00D1641C01208346019425B1D7
:10403000082D11D0102D22D112E02078302801D087
:104040000A251CE014F8010F582803D0782801D065
:10405000082514E010250CE0207830280ED00EE062
:10406000207830280BD114F8010F582801D0782877
:1040700005D16078FFF7DFF9012800D1641C002624
:10408000B046009627783846FFF7ABF9012824D1CF
:104090003846FFF7C2F901280CD03846FFF7AFF9D0
:1040A000012809D0373FF9B2A94216D2B8F1000F62
:1040B00004D00EE0303FF6E7573FF4E71D4850F8D4
:1040C0002500B04203D306FB05168E4201D24FF005
:1040D00001080098641C0028D4D0B8F1010F01D168
:1040E0004FF0FF360198844202D0C9F8004001E049
:1040F000C9F800A00E99304681F800B00CE708B569
:1041000000230093FFF75EFF08BD1CB501AB0093D1
:104110000123FFF757FF9DF804204FF0004122B123
:10412000884200D2414208461CBD8842FCD36FF051
:1041300000401CBD04C90008002800D170470029B8
:1041400000D17047002A00D170472DE9F81F00F018
:10415000030301F00304A34211D1C3F1040303F0EC
:104160000303012B1DD3012A00D2F2E011F8014B09
:1041700000F8014BA3F10103A2F10102F1E700F005
:10418000010301F00104A34200D094E0012B44D3C9
:1041900011F8014B00F8014BA3F10103A2F1010258
:1041A000F4E7B2F5B47F26D3B1E8F81FA0E8F81F12
:1041B000B1E8F81FA0E8F81FB1E8F81FA0E8F81F61
:1041C000B1E8F81FA0E8F81FB1E8F81FA0E8F81F51
:1041D000B1E8F81FA0E8F81FB1E8F81FA0E8F81F41
:1041E000B1E8F81FA0E8F81FB1E8F81FA0E8F81F31
:1041F000A2F5B472D5E7282A06D3B1E8F81FA0E8E3
:10420000F81FA2F12802F6E7042A06D351F8043B6E
:1042100040F8043BA2F10402F6E7202A42D331F829
:10422000023B20F8023B31F8023B20F8023B31F818
:10423000023B20F8023B31F8023B20F8023B31F808
:10424000023B20F8023B31F8023B20F8023B31F8F8
:10425000023B20F8023B31F8023B20F8023B31F8E8
:10426000023B20F8023B31F8023B20F8023B31F8D8
:10427000023B20F8023B31F8023B20F8023B31F8C8
:10428000023B20F8023B31F8023B20F8023B31F8B8
:10429000023B20F8023B31F8023B20F8023BA2F13E
:1042A0002002BAE7022A06D331F8023B20F8023B8B
:1042B000A2F10202F6E7102A42D311F8013B00F8FE
:1042C000013B11F8013B00F8013B11F8013B00F8FC
:1042D000013B11F8013B00F8013B11F8013B00F8EC
:1042E000013B11F8013B00F8013B11F8013B00F8DC
:1042F000013B11F8013B00F8013B11F8013B00F8CC
:10430000013B11F8013B00F8013B11F8013B00F8BB
:10431000013B11F8013B00F8013B11F8013B00F8AB
:10432000013B11F8013B00F8013B11F8013B00F89B
:10433000013B11F8013B00F8013BA2F11002BAE782
:10434000012A06D311F8013B00F8013BA2F101025A
:10435000F6E7BDE8F81F704770470000F64CF74DD0
:10436000FFF71EF82168491C21602968491C296053
:10437000FFF71AF804F07AFDF2E700B5EE4A89B0CB
:10438000002111600B2205910691CDE90720EC4830
:10439000EC4AED4B006812681B680292CDE90301FC
:1043A0003F20CDE900030023AFF24F02E7A1EC4824
:1043B00003F049F809B000BD0020EA4B024600EBCB
:1043C000400103EB8101401C0A810A60C0B24A60CF
:1043D0004028F4D3704710B5044604F04DFDE24880
:1043E00000220A210270E1480270E1480270E148AF
:1043F0000260E1480260E1480270E1480270E14871
:104400000270E1480260E1480260E1480260E14870
:104410000270E1480068B0FBF1F0E0490860E04953
:10442000086830B1DF48006818B1096804C0491E47
:10443000FCD1DD480260DD480260DD480260DD48F5
:104440000260DD480260DD480260DD480260DD4850
:10445000027001F02DFFFFF7AFFF204601F08DF84D
:104460002088002847D1204601F0D9FA208800286A
:1044700041D1204601F0FCFA208800283BD120469B
:1044800001F0FFFE2088002835D1204602F03CFADA
:10449000208800282FD1204602F0E4FC2088002844
:1044A00029D1204603F05AFE2088002823D1204637
:1044B00001F062F9208800281DD12046FFF75DFF3A
:1044C0002088002817D1204603F048FF20880028C4
:1044D00011D1204602F051FE208800280BD1204641
:1044E00004F034FC2088002805D100F0A5FCBDE8CC
:1044F0001040FFF731BF10BD9C480078012805D15E
:1045000099490878FA2801D2401C087070479748EA
:1045100010B5007801282BD1FEF742FF92490446DE
:10452000087800B3401E10F0FF0008701BD19048BF
:104530000078C0B901F0C5FE91490870894900EBC7
:10454000400051F820008C4908608A490968884277
:1045500009D050F8901F491C01609B480168491C14
:10456000016006F097FF2046BDE81040FEF71CBF33
:1045700010BD7D4810B50078002824D17C48007813
:10458000002820D1FEF70CFF044601F09AFE7C497A
:104590000870744900EB400051F82000764908602B
:1045A00074490968884209D050F8901F491C01607D
:1045B00085480168491C016006F067FF2046BDE898
:1045C0001040FEF7F1BE10BD694810B50078012813
:1045D00003D1FEF7EAFD6C49086010BD70B50446D2
:1045E0006148007810B146F6625019E05F480078E3
:1045F000012802D045F6896012E05D4D2878FA283E
:1046000002D345F209200BE0FEF7CAFE06462878E1
:10461000401C2870FFF7D8FF3046FEF7C5FE00208B
:10462000208070BD524810B5007800280ED1FEF7EA
:10463000BCFD55490968401A54490A68824200D2B3
:10464000086053490A68824200D2086010BD70B504
:1046500004464548007810B146F6655023E04348CB
:104660000078012802D045F689601CE0404E307881
:1046700070B1FEF795FE05463078401E10F0FF0041
:10468000307008D02846FEF78FFE46F663500AE0E9
:1046900046F6645007E0FFF7C5FF2846FEF784FEA4
:1046A000FFF767FF0020208070BD2DE9F04116461E
:1046B0000C460746FEF774FE36490025012F01D04F
:1046C0000D7001E001220A7034490CB10C6005E064
:1046D000314A0A231268B2FBF3F20A60FEF764FE65
:1046E0003580BDE8F08110B50189002914D0012979
:1046F00012D00024022907D0D0E90013CA6814613F
:10470000C1E90343D96005E0D0E90012C1E90342E1
:10471000C2E90314C0E9002110BD70B50446124877
:10472000007810B148F2D14079E01148007810B11A
:1047300046F6635073E049E044030020A8030020DC
:10474000ACC90008A8C90008A4C9000875432F4FC8
:10475000532D4949492049646C65205461736B00AD
:10476000283E0020BC3F00204803002049030020D1
:1047700090030020E8030020EC03002076030020D3
:1047800077030020780300208403002088030020A2
:104790008C03002098030020F8C90008940300202F
:1047A000D0C90008CCC90008280300202C03002031
:1047B0003003002034030020380300203C03002095
:1047C00040030020C6030020BC030020F748007807
:1047D000012802D046F67B1021E0FEF7E1FD0646F7
:1047E000F348F449007800EB400001EB800528898C
:1047F000022805D23046FEF7D7FD46F67A100EE0C5
:104800002846FFF770FF2868416D09B9EA49096831
:1048100081653046FEF7C8FDFFF7ABFE0020208023
:1048200070BD70B5E54D0446287818B145F68A602C
:10483000208070BD01F045FDE1490870DC49087039
:10484000DC4900EB400051F82000DE490860DE49F9
:1048500008600120287006F007FE43F69920E7E77C
:104860000021018047F25C60704738B14268C1F8AE
:10487000C02081688968096AC161704791F8340075
:10488000022803D0072803D0D0A002E0D0A000E087
:10489000D1A0C1F8C000704730B58A68002592F8F1
:1048A000374002891AB1521C028102680BE00122D2
:1048B00002814D600D60016014E0936893F8373019
:1048C000A34203D85268002AF7D107E032B1136837
:1048D00053B1C1E900325960116030BD4D6042688A
:1048E0000A605160416030BD1160C1E90052016051
:1048F00030BD10B5C2870024234601630EE04B6033
:1049000041F8103B641C41F8103BA4B241F80C3C48
:1049100021F8083C41F8043C41F8180C9442EED3CD
:1049200010BD70B5044690F83700A24900EB400076
:1049300001EB8001D4E90320002540B10B895B1E07
:104940000B81C26092B110612561E56070BD2AB132
:104950000889401E088115610A60F5E70D810D6028
:104960004D6094F8370001F0CAFCEDE74860EBE7D2
:1049700038B50446022531B16B46022203F027FD0B
:10498000BDF8000028B184F836502046FFF7C9FF73
:1049900038BD032084F83600F7E72DE9F0418A4D51
:1049A00007460C4628680026194680F8342080F80F
:1049B0003560FFF7DDFF64B1FC6004F108060122F9
:1049C00039462868FFF795FF39463046FFF764FF00
:1049D00002E02868C687066320462968BDE8F041E2
:1049E00043E710B502890024012A0BD00A6862B19E
:1049F0004B6873B153601A600289521E02814C6089
:104A00000C6010BD04604460F6E74A681460026000
:104A1000F2E754604260EFE770B50646C58F046B5D
:104A200007E0E06821460830FFF7DBFF6D1EADB2FE
:104A30002034002DF5D10020F087306370BD10B513
:104A40000B6BC98F08E0DC68844202D1DA6118611F
:104A500010BD491E89B220330029F4D110BD90F851
:104A60003710544A01EB410102EB810100230A890E
:104A700042B1521C0A810A68C0E903230A68106126
:104A80000860704701220A81C360036108604860C2
:104A9000704790F83710474A01EB410102EB810162
:104AA00000230A893AB1521C0A81C3604A68026134
:104AB000D0604860704701220A81C36003610860CA
:104AC000F7E710B5044690F8370001F00AFC3849C2
:104AD00094F8370009788842204602D1BDE810409A
:104AE000D7E7BDE81040BAE710B5044603F060FB15
:104AF00094F83610490703D42046BDE81040E0E79B
:104B000010BD2DE9F041064691F8360000270C460D
:104B100015464FF00108082835D2DFE800F034349C
:104B2000040434341A1A94F83400032803D12146BB
:104B30003046FFF784FFE765A4F86070256416B17E
:104B40002046FFF769FF2046FFF7CEFF84F8367056
:104B500015E094F83400032803D121463046FFF7CE
:104B60006EFFE765A4F86070256416B12046FFF774
:104B700053FF204603F01CFB042084F8360084F821
:104B8000358084F83470ACE516A2C1F8C020816885
:104B900011B18968096A00E012A1C161704770B55E
:104BA00080F83710C58F046B2EE0000098030020BA
:104BB00076030020BC3F002094030020490300201E
:104BC00077030020EC030020E80300202000000011
:104BD0005461736B205100005461736B2053656DF9
:104BE0000000000020000000E668308A0836012836
:104BF00007D921463046FFF7F4FE21463046FFF73D
:104C00004BFE6D1EADB22034002DEDD170BD0021E4
:104C100001604160018170470289521C0281026873
:104C20004A6000220A60026802B1116001600289D4
:104C3000012A00D14160704710B50B6BC98F08E0A5
:104C4000DC68844202D1DA61186110BD491E89B264
:104C500020330029F4D110BD2DE9F0410C4691F824
:104C60003610002502261746082933D2DFE801F066
:104C7000323204043232191994F83410032903D162
:104C80003A462146FFF7D8FFE565A4F86050204674
:104C90002764FFF7C1FE2046FFF726FF84F8365051
:104CA00014E094F83410032903D13A462146FFF763
:104CB000C3FFE565A4F860502046276403F078FA46
:104CC0002046FFF7A9FE042084F8360084F83560FA
:104CD00084F8345005E570B50C6B049DC98F0AE06B
:104CE000E668864204D1C4E904022383E56170BD0D
:104CF000491E89B220340029F2D170BDF8B50C46A6
:104D0000054691F836100026069808293BD2DFE8C0
:104D100001F03A3A04043A3A202094F83410032976
:104D200011D0E265A4F86030206435B12046FFF769
:104D300073FE21462846FFF727FF2046FFF7D4FEE3
:104D400084F836601BE0009021462846FFF7C3FF39
:104D5000EBE794F83410032916D0E265A4F860302C
:104D60002064204603F024FA35B12046FFF754FEB4
:104D700021462846FFF708FF042084F8360084F80F
:104D8000356084F83460F8BD009021462846FFF76E
:104D9000A2FFE6E710B5FEF703FB1F49044600201B
:104DA00008701F481D49016051F8900F401C0860B1
:104DB0001C490868401C086006F067FB2046BDE8F7
:104DC0001040FEF7F1BA70B5054617480078012883
:104DD00020D1FEF7E5FA04462868B0B113498842AD
:104DE00013D0816D11B1491E81650ED12889022829
:104DF0000BD30F48007840B92846FFF774FC2868A9
:104E0000416D09B90B49096881652046BDE87040CC
:104E1000FEF7CABA70BD000077030020EC3E002008
:104E2000EC030020BC03002098030020283E002053
:104E30009003002094030020704700000023FF4AE5
:104E4000FDA14361C161116819B1816148611060C0
:104E500070478361FBE72DE9F0410446F84890462E
:104E60000F4600781D4610B142F6E16025E014B30C
:104E7000FEF796FAF34E3178491C3170FEF794FA3A
:104E8000F148C4E900070027C4E9088704F10800D5
:104E9000FFF7BDFE2046FFF7D1FFEC490888401C14
:104EA0000880FEF77DFA3178491E3170FEF77CFAF2
:104EB0002F80BDE8F08145F6C3501880F9E7E4493A
:104EC00002C0E4A102C000218161FFF7A0BED0E9C9
:104ED000052100232AB151B191614A618361436187
:104EE0007047D64A116001B14B618361704793618D
:104EF000F5E72DE9F05F8046D148144689460078F1
:104F000010B143F2C92013E0B8F1000F06D0080039
:104F100007D0012905D045F6256009E045F6C350C4
:104F200006E0C949D8F80000884205D045F6C450CB
:104F300010800020BDE8F09FFEF732FAC14F3978AB
:104F4000491C3970FEF730FAB8F810505FEA0900D2
:104F5000DFF8F8B2DFF8049308F10806AA460AD091
:104F6000012842D0FEF71CFA3978491E11F0FF01E2
:104F700039705DD064E05FEA0A0008D0FEF710FAED
:104F80003978491E11F0FF0139701FD026E04046E4
:104F9000FFF79DFFBBF800104046491EABF800101C
:104FA000FFF78DFFFEF7FCF93978491E11F0FF017C
:104FB000397007D1B9F8001021B1FEF7F5F9FFF704
:104FC000E9FE01E0FEF7F0F900200BE0B9F800106F
:104FD00021B1FEF7E9F9FFF7DDFE01E0FEF7E4F9A4
:104FE00047F25F1020805046A4E7FEF7DEF88146C6
:104FF00007E030684A4681684046FFF72DFE6D1E87
:10500000ADB2002DF5D14046FFF761FFBBF80010AF
:105010004046491EABF80010FFF751FFFEF7C0F9FC
:105020003978491E3970FEF7BFF9FFF7A2FACBE7CE
:10503000B9F8001021B1FEF7B7F9FFF7ABFE01E0B8
:10504000FEF7B2F945F62560CCE730B4844C029DFA
:10505000246844F8802F0022238162602B4630BCF4
:105060000122FFF79ABC2DE9FF4F05468BB074482B
:10507000DDE9186400781F46894610B146F2AE108B
:1050800007E1ADB148F20101781A8F4229D019DC4D
:1050900040F20111A7F201108F4222D00BDC012F48
:1050A0001FD0022F1DD0042F1BD0082F16D118E0BF
:1050B00045F6C350EDE0012813D0032811D007288E
:1050C0000CD10EE0B0F5807F0BD0F4DDA0F5807040
:1050D000013806D0022804D0062802D045F6256003
:1050E000D7E059492868884202D045F6C450D0E03C
:1050F000F80501D5012000E0002080464FF0000BAC
:105100000EB1C6F800B007F00F010991FEF748F99B
:1051100009994C4A4FF0010E012934D0022938D0A8
:10512000042902D008296ED123E0296A01EA090A7C
:10513000CA4524D011E021EA0A0135E0484A126844
:10514000C2F884A00EB1696A3160FEF72DF9A4F8A7
:1051500000B050460FB0BDE8F08F390426D5FEF7F9
:1051600023F946F2B01094E0FEF71EF946F66350BC
:105170008FE0296A01EA09035FEA030AEDD0B8F17A
:10518000000FDBD0D7E7296A29EA010ACA4506D011
:10519000E3E7296A29EA01035FEA030ADDD0B8F1EF
:1051A000000FCBD041EA0A012962C7E71178002934
:1051B000DAD1924682F800E0FEF7F6F80D980090FA
:1051C0003B464A46294601A8FFF73FFFFEF7E8F8AD
:1051D0009AF80010491E8AF80010FEF7E5F8FFF76C
:1051E000C8F9FEF7DDF81E4B1A6892F8351059B170
:1051F000012937D0022945D003293BD0FEF7D4F846
:1052000046F62E6045E014E00EB1116C3160A4F852
:1052100000B019685F46B8F1000FD1F8846041D042
:10522000099901293BD0022939D0042934D0082911
:1052300032D0FEF7B9F851E72000000060030020EB
:105240004803002090030020464C4147640300209F
:105250004E4F4E453F464C4147000000540300204E
:10526000E80300200EB1116C3160FEF79DF846F2A4
:10527000A9100EE00EB1C6F800B0FEF795F847F29F
:10528000D92006E00EB1116C3160FEF78DF845F6BD
:10529000C250208000205DE7296AB14301E0296AFD
:1052A00031432962FEF780F82780304652E72DE926
:1052B000F05F8046B4480F461446007810B146F2BD
:1052C000AA1012E0B8F1000F0DD04FF4807A77B138
:1052D00057450CD0B7F5004F09D0B7F5014F06D0B0
:1052E00045F6256001E045F6C350108021E0A7494E
:1052F000D8F80000884202D045F6C450F5E7FEF722
:105300004FF8B8F8101008F1080569B1DFF880927D
:1053100099F80020521C89F80020FEF745F8002675
:10532000FDF743FF834610E0FEF73EF846F2AB1070
:1053300020800020FEE528685A4681684046FFF735
:10534000E0FB761CB6B2574502D128890028F2D17D
:10535000FEF726F899F80020521E89F80020FEF783
:1053600023F8380401D4FFF704F9002020803046E8
:10537000E0E570B504468448007820B146F2AE10EE
:105380002080002070BDFEF70BF882490968D1F833
:105390008450FEF709F800202080284670BD70B5C3
:1053A0000025C0F8841080F8355080F83450044649
:1053B000026490F8360008280ED2DFE800F00D0DE8
:1053C00004040D0D0A0A2046FFF78EFB84F83650C0
:1053D00002E0042084F836002046BDE87040FFF764
:1053E0001BBB2DE9F0479A4690460D460446089EA1
:1053F000FDF7D6FF01465FEA080022D0012807D05A
:10540000B0F5004F1DD06FF4004218EB020F12D11F
:10541000206AA843C4E9080A208A04F108054FF06D
:10542000000988B15A4F3878401C38700846FDF79B
:10543000BBFF2D6841E00846FDF7B6FF45F6256045
:105440005FE0206A2843E5E70846FDF7ADFFA6F8D0
:105450000090206ABDE8F08790F888106D6801F030
:105460000F01012918D002291ED004290AD00829C9
:105470000DD0FDF795FF3978491E11F0FF01397005
:1054800033D03AE0216AD0F88020114009E0216A47
:10549000D0F8802011400BE0D0F88010236A0A4633
:1054A00099438A4205D007E0D0F88010226A9143E0
:1054B00011B15246FFF773FF15B1A8680028CBD190
:1054C000FDF76EFF3978491E3970FDF76DFF5FEA11
:1054D000084001D4FFF74DF8FDF762FF246AFDF79D
:1054E00063FFA6F800902046B4E72B49098821B154
:1054F000FDF75AFFFFF74EFC01E0FDF755FF43F6BD
:10550000FF2030800020A5E72DE9FF4115468846A1
:1055100006001C460DD07DB1012D0DD0B5F5004F14
:105520000AD06FF40040C54206D045F625601880C9
:1055300019E045F6C350FAE7144F3068B84202D07C
:1055400045F6C450F3E7FDF730FE03460E480078F9
:1055500060B1CDE90234CDE9008500231A46314619
:10556000384600F01FF8002004B0A2E42A46414665
:1055700030460094FFF735FFF6E7084A0021116036
:10558000074A11800180704748030020464C41477C
:1055900090030020E8030020540300206003002053
:1055A000640300202DE9F05F1E46DDE90AAB90465A
:1055B0000F4681460D9CFDF7F3FEA049A04A054623
:1055C0000888128890422BD2401C80B208809D49E6
:1055D0000A88824200D208809B4A1068C0F8009076
:1055E000C0E902780682C0F814A0A0F818B00C999F
:1055F000C1614068106095480121018194490160B2
:105600004160002000F06DFE9248007808B1924998
:105610000870002020802846BDE8F05FFDF7C4BE7A
:105620008E480188491C018044F25360F2E73EB580
:105630008B4C8C4A02AB206801688D1A914245D090
:1056400015DC894A89182DD0884A891822D0884AC1
:10565000891832D0874AD14208D1C169CDE90013F7
:10566000038B028AC168806802F088F93EBD8249D6
:1056700069181DD0814A891823D0814AD142F5D1B9
:10568000C169CDE90013038B028AC168806801F00B
:1056900091F83EBD0093028BC36941698068FFF7B2
:1056A000A0FE3EBD018BC269806801F016FB3EBDC5
:1056B0008068194602F04BFA3EBD018BC2698068D2
:1056C00022E08068194602F0B8FC3EBD62485F499E
:1056D000007800EB400001EB8000FFF774FB2068CE
:1056E00002AB0021C269674802F094FB6649086872
:1056F000401E0860E9D1654800680860FDF755FD67
:10570000024602AB0021624802F084FB3EBD614FBD
:105710004A4C0025DFF84881FDF742FE0646208806
:10572000E8B13046FDF740FEFDF73FFD0646FFF7C6
:105730007EFFFDF73AFD3968801B814200D2386058
:10574000FDF72EFED8F800205268C8F80020218806
:10575000491E2180FDF728FE002DDDD0D9E73B4909
:10576000002008810860486000F0C9FD3046FDF760
:105770001BFEFEF7FEFECCE7F0B53849464D89B07A
:1057800000240C80296831B12D4E3188022905D2C0
:1057900044F2546135E044F2526132E03D49002365
:1057A0003E4F0C60296801F1200210E041F8087BAF
:1057B0005B1C41F8084B9BB241F8044C21F8104B9C
:1057C00041F80C4C21F8084C41F81C2C2032B6F85A
:1057D00000C06345EAD32A6841F81C2C1A490A60C4
:1057E0001F490A6015492E4A0C8016490C80116821
:1057F00051B12C492C4D0B682D68AB4207D244F2B5
:105800005661018009B0F0BD44F25561F9E7032308
:1058100005940694CDE907300868244912680023EE
:105820000968CDE903040094CDE90121AFF221120A
:105830001FA1074801F007FEE4E700005403002021
:105840009CC90008560300204C030020BC3F0020E8
:10585000EC3E00207603002078030020580300204F
:10586000500300205449434BADBAB2BE0DF90BFAB8
:10587000F2F8F7FF0006F6FF00F7FDF700FFEFFF75
:1058800003FE0FFE80430020E4030020E00300201D
:10589000444400205C030020B4C900084E4F4E452C
:1058A000BCC90008C4C90008F4C90008C0C9000880
:1058B00075432F4F532D4949492049535220517563
:1058C000657565205461736B00000000574B002222
:1058D0008261196819B1C161886118607047C2613D
:1058E000FBE72DE9F05F04465148DDE90A750078D1
:1058F000984616468B4610B145F2B96014E045F261
:10590000BB615EB1B8F1020F01D2481C0CE045F258
:10591000C160042F08D316F0030F02D02980BDE820
:10592000F09F17F0030F01D02880F8E7A8F10101DC
:105930008BB23246002104E0D0191060491C0246A7
:1059400089B29942F8D34FF0000AC2F800A0FDF7DF
:1059500027FDDFF8E09099F80010491C89F8001045
:10596000FDF722FD344884E84108E660A4F814807D
:10597000A4F8128027822046FFF7A8FF2F4801884D
:10598000491C0180FDF70CFD99F80010491E89F8AB
:105990000010FDF709FDA5F800A0C0E770B50400F0
:1059A0000D460ED0FDF7FCFCA18A71B1E668491ED8
:1059B0003268E260A182FDF7F7FC002028803046C3
:1059C00070BD45F2BF60088004E0FDF7EDFC45F2D4
:1059D000C2602880002070BD70B50E4604001546D8
:1059E0000BD06EB1FDF7DCFCA18A628A91420BD329
:1059F000FDF7DAFC45F2BA600FE045F2BF6001E066
:105A000045F2BE60108070BDE1683160E660A18A39
:105A1000491CA182FDF7C8FC0020288070BD034A04
:105A200000211160054A1180018070476803002041
:105A300048030020900300204D454D206C030020BA
:105A400010B5491E8CB2002100F110020B4608E08F
:105A5000E0E80223491C20F8083B89B240F8043CE6
:105A60001032A142F4D3036043600381C36010BDD0
:105A700070B5524D0446286880B1514E308880B1CF
:105A800081B22868FFF7DCFF4E4829680160318841
:105A900081800021C1800181218070BD45F21E708E
:105AA00001E045F21D70208070BD10B5428992B1B1
:105AB000444903680C681C6043680B60CB884489C8
:105AC0001B1BCB808B88448923448B800021418120
:105AD000818101604160104610BD0181002141813A
